{
  "contractName": "Fundraiser",
  "abi": [
    {
      "inputs": [
        {
          "internalType": "string",
          "name": "_name",
          "type": "string"
        },
        {
          "internalType": "string",
          "name": "_image",
          "type": "string"
        },
        {
          "internalType": "string",
          "name": "_description",
          "type": "string"
        },
        {
          "internalType": "uint256",
          "name": "_goalAmount",
          "type": "uint256"
        },
        {
          "internalType": "string",
          "name": "_facebookLink",
          "type": "string"
        },
        {
          "internalType": "string",
          "name": "_linkedinLink",
          "type": "string"
        },
        {
          "internalType": "string",
          "name": "_twitterLink",
          "type": "string"
        },
        {
          "internalType": "address payable",
          "name": "_beneficiary",
          "type": "address"
        },
        {
          "internalType": "address",
          "name": "_custodian",
          "type": "address"
        }
      ],
      "stateMutability": "nonpayable",
      "type": "constructor"
    },
    {
      "anonymous": false,
      "inputs": [
        {
          "indexed": true,
          "internalType": "address",
          "name": "donor",
          "type": "address"
        },
        {
          "indexed": false,
          "internalType": "uint256",
          "name": "value",
          "type": "uint256"
        }
      ],
      "name": "DonationReceived",
      "type": "event"
    },
    {
      "anonymous": false,
      "inputs": [
        {
          "indexed": true,
          "internalType": "address",
          "name": "previousOwner",
          "type": "address"
        },
        {
          "indexed": true,
          "internalType": "address",
          "name": "newOwner",
          "type": "address"
        }
      ],
      "name": "OwnershipTransferred",
      "type": "event"
    },
    {
      "anonymous": false,
      "inputs": [
        {
          "indexed": false,
          "internalType": "uint256",
          "name": "amount",
          "type": "uint256"
        }
      ],
      "name": "Withdraw",
      "type": "event"
    },
    {
      "stateMutability": "payable",
      "type": "fallback"
    },
    {
      "inputs": [
        {
          "internalType": "address",
          "name": "",
          "type": "address"
        },
        {
          "internalType": "uint256",
          "name": "",
          "type": "uint256"
        }
      ],
      "name": "_donations",
      "outputs": [
        {
          "internalType": "uint256",
          "name": "value",
          "type": "uint256"
        },
        {
          "internalType": "uint256",
          "name": "date",
          "type": "uint256"
        }
      ],
      "stateMutability": "view",
      "type": "function"
    },
    {
      "inputs": [],
      "name": "beneficiary",
      "outputs": [
        {
          "internalType": "address payable",
          "name": "",
          "type": "address"
        }
      ],
      "stateMutability": "view",
      "type": "function"
    },
    {
      "inputs": [
        {
          "internalType": "uint256",
          "name": "",
          "type": "uint256"
        }
      ],
      "name": "dataById",
      "outputs": [
        {
          "internalType": "uint256",
          "name": "Amount",
          "type": "uint256"
        },
        {
          "internalType": "address",
          "name": "Address",
          "type": "address"
        },
        {
          "internalType": "uint256",
          "name": "Date",
          "type": "uint256"
        }
      ],
      "stateMutability": "view",
      "type": "function"
    },
    {
      "inputs": [
        {
          "internalType": "uint256",
          "name": "",
          "type": "uint256"
        }
      ],
      "name": "datas",
      "outputs": [
        {
          "internalType": "uint256",
          "name": "Amount",
          "type": "uint256"
        },
        {
          "internalType": "address",
          "name": "Address",
          "type": "address"
        },
        {
          "internalType": "uint256",
          "name": "Date",
          "type": "uint256"
        }
      ],
      "stateMutability": "view",
      "type": "function"
    },
    {
      "inputs": [],
      "name": "description",
      "outputs": [
        {
          "internalType": "string",
          "name": "",
          "type": "string"
        }
      ],
      "stateMutability": "view",
      "type": "function"
    },
    {
      "inputs": [],
      "name": "donationsCount",
      "outputs": [
        {
          "internalType": "uint256",
          "name": "",
          "type": "uint256"
        }
      ],
      "stateMutability": "view",
      "type": "function"
    },
    {
      "inputs": [],
      "name": "facebookLink",
      "outputs": [
        {
          "internalType": "string",
          "name": "",
          "type": "string"
        }
      ],
      "stateMutability": "view",
      "type": "function"
    },
    {
      "inputs": [],
      "name": "goalAmount",
      "outputs": [
        {
          "internalType": "uint256",
          "name": "",
          "type": "uint256"
        }
      ],
      "stateMutability": "view",
      "type": "function"
    },
    {
      "inputs": [],
      "name": "id",
      "outputs": [
        {
          "internalType": "uint256",
          "name": "",
          "type": "uint256"
        }
      ],
      "stateMutability": "view",
      "type": "function"
    },
    {
      "inputs": [],
      "name": "image",
      "outputs": [
        {
          "internalType": "string",
          "name": "",
          "type": "string"
        }
      ],
      "stateMutability": "view",
      "type": "function"
    },
    {
      "inputs": [],
      "name": "linkedinLink",
      "outputs": [
        {
          "internalType": "string",
          "name": "",
          "type": "string"
        }
      ],
      "stateMutability": "view",
      "type": "function"
    },
    {
      "inputs": [],
      "name": "name",
      "outputs": [
        {
          "internalType": "string",
          "name": "",
          "type": "string"
        }
      ],
      "stateMutability": "view",
      "type": "function"
    },
    {
      "inputs": [],
      "name": "owner",
      "outputs": [
        {
          "internalType": "address",
          "name": "",
          "type": "address"
        }
      ],
      "stateMutability": "view",
      "type": "function"
    },
    {
      "inputs": [],
      "name": "renounceOwnership",
      "outputs": [],
      "stateMutability": "nonpayable",
      "type": "function"
    },
    {
      "inputs": [],
      "name": "totalDonations",
      "outputs": [
        {
          "internalType": "uint256",
          "name": "",
          "type": "uint256"
        }
      ],
      "stateMutability": "view",
      "type": "function"
    },
    {
      "inputs": [
        {
          "internalType": "address",
          "name": "newOwner",
          "type": "address"
        }
      ],
      "name": "transferOwnership",
      "outputs": [],
      "stateMutability": "nonpayable",
      "type": "function"
    },
    {
      "inputs": [],
      "name": "twitterLink",
      "outputs": [
        {
          "internalType": "string",
          "name": "",
          "type": "string"
        }
      ],
      "stateMutability": "view",
      "type": "function"
    },
    {
      "inputs": [
        {
          "internalType": "address payable",
          "name": "_beneficiary",
          "type": "address"
        }
      ],
      "name": "setBeneficiary",
      "outputs": [],
      "stateMutability": "nonpayable",
      "type": "function"
    },
    {
      "inputs": [],
      "name": "myDonationsCount",
      "outputs": [
        {
          "internalType": "uint256",
          "name": "",
          "type": "uint256"
        }
      ],
      "stateMutability": "view",
      "type": "function"
    },
    {
      "inputs": [],
      "name": "getAllDonation",
      "outputs": [
        {
          "internalType": "uint256[]",
          "name": "",
          "type": "uint256[]"
        }
      ],
      "stateMutability": "view",
      "type": "function"
    },
    {
      "inputs": [
        {
          "internalType": "uint256",
          "name": "_id",
          "type": "uint256"
        }
      ],
      "name": "dataByIndex",
      "outputs": [
        {
          "components": [
            {
              "internalType": "uint256",
              "name": "Amount",
              "type": "uint256"
            },
            {
              "internalType": "address",
              "name": "Address",
              "type": "address"
            },
            {
              "internalType": "uint256",
              "name": "Date",
              "type": "uint256"
            }
          ],
          "internalType": "struct Fundraiser.Data",
          "name": "",
          "type": "tuple"
        }
      ],
      "stateMutability": "view",
      "type": "function"
    },
    {
      "inputs": [],
      "name": "donate",
      "outputs": [],
      "stateMutability": "payable",
      "type": "function"
    },
    {
      "inputs": [],
      "name": "myDonations",
      "outputs": [
        {
          "internalType": "uint256[]",
          "name": "values",
          "type": "uint256[]"
        },
        {
          "internalType": "uint256[]",
          "name": "dates",
          "type": "uint256[]"
        }
      ],
      "stateMutability": "view",
      "type": "function"
    },
    {
      "inputs": [],
      "name": "withdraw",
      "outputs": [],
      "stateMutability": "nonpayable",
      "type": "function"
    }
  ],
  "bytecode": "0x608060405260016002553480156200001657600080fd5b50604051620023693803806200236983398181016040528101906200003c91906200038d565b6200005c620000506200015a60201b60201c565b6200016260201b60201c565b88600590805190602001906200007492919062000226565b5087600690805190602001906200008d92919062000226565b508660079080519060200190620000a692919062000226565b508560098190555084600a9080519060200190620000c692919062000226565b5083600b9080519060200190620000df92919062000226565b5082600c9080519060200190620000f892919062000226565b5081600860006101000a81548173ffffffffffffffffffffffffffffffffffffffff021916908373ffffffffffffffffffffffffffffffffffffffff1602179055506200014b816200016260201b60201c565b505050505050505050620006cd565b600033905090565b60008060009054906101000a900473ffffffffffffffffffffffffffffffffffffffff169050816000806101000a81548173ffffffffffffffffffffffffffffffffffffffff021916908373ffffffffffffffffffffffffffffffffffffffff1602179055508173ffffffffffffffffffffffffffffffffffffffff168173ffffffffffffffffffffffffffffffffffffffff167f8be0079c531659141344cd1fd0a4f28419497f9722a3daafe3b4186f6b6457e060405160405180910390a35050565b8280546200023490620005eb565b90600052602060002090601f016020900481019282620002585760008555620002a4565b82601f106200027357805160ff1916838001178555620002a4565b82800160010185558215620002a4579182015b82811115620002a357825182559160200191906001019062000286565b5b509050620002b39190620002b7565b5090565b5b80821115620002d2576000816000905550600101620002b8565b5090565b6000620002ed620002e78462000530565b620004fc565b9050828152602081018484840111156200030657600080fd5b62000313848285620005b5565b509392505050565b6000815190506200032c816200067f565b92915050565b600081519050620003438162000699565b92915050565b600082601f8301126200035b57600080fd5b81516200036d848260208601620002d6565b91505092915050565b6000815190506200038781620006b3565b92915050565b60008060008060008060008060006101208a8c031215620003ad57600080fd5b60008a015167ffffffffffffffff811115620003c857600080fd5b620003d68c828d0162000349565b99505060208a015167ffffffffffffffff811115620003f457600080fd5b620004028c828d0162000349565b98505060408a015167ffffffffffffffff8111156200042057600080fd5b6200042e8c828d0162000349565b9750506060620004418c828d0162000376565b96505060808a015167ffffffffffffffff8111156200045f57600080fd5b6200046d8c828d0162000349565b95505060a08a015167ffffffffffffffff8111156200048b57600080fd5b620004998c828d0162000349565b94505060c08a015167ffffffffffffffff811115620004b757600080fd5b620004c58c828d0162000349565b93505060e0620004d88c828d0162000332565b925050610100620004ec8c828d016200031b565b9150509295985092959850929598565b6000604051905081810181811067ffffffffffffffff8211171562000526576200052562000650565b5b8060405250919050565b600067ffffffffffffffff8211156200054e576200054d62000650565b5b601f19601f8301169050602081019050919050565b600062000570826200058b565b9050919050565b600062000584826200058b565b9050919050565b600073ffffffffffffffffffffffffffffffffffffffff82169050919050565b6000819050919050565b60005b83811015620005d5578082015181840152602081019050620005b8565b83811115620005e5576000848401525b50505050565b600060028204905060018216806200060457607f821691505b602082108114156200061b576200061a62000621565b5b50919050565b7f4e487b7100000000000000000000000000000000000000000000000000000000600052602260045260246000fd5b7f4e487b7100000000000000000000000000000000000000000000000000000000600052604160045260246000fd5b6200068a8162000563565b81146200069657600080fd5b50565b620006a48162000577565b8114620006b057600080fd5b50565b620006be81620005ab565b8114620006ca57600080fd5b50565b611c8c80620006dd6000396000f3fe60806040526004361061014f5760003560e01c8063715018a6116100b6578063c0a094fd1161006f578063c0a094fd14610488578063dc0661be146104c7578063de2ed89314610505578063ed88c68e14610530578063f2fde38b1461053a578063f3ccaac01461056357610150565b8063715018a61461039a5780637284e416146103b157806373da56a7146103dc578063848604aa146104075780638da5cb5b14610432578063af640d0f1461045d57610150565b80632636b945116101085780632636b9451461029857806338af3eed146102c35780633ccfd60b146102ee5780634d7b91321461030557806352e9a1a0146103445780637141a03b1461036f57610150565b80630180b97c1461018557806306fdde03146101b05780630c112203146101db5780631a57f7b4146102185780631c31f710146102445780631f5225951461026d57610150565b5b61016534600d5461058e90919063ffffffff16565b600d81905550600e600081548092919061017e90611b59565b9190505550005b34801561019157600080fd5b5061019a6105a4565b6040516101a79190611980565b60405180910390f35b3480156101bc57600080fd5b506101c56105ee565b6040516101d29190611903565b60405180910390f35b3480156101e757600080fd5b5061020260048036038101906101fd9190611669565b61067c565b60405161020f9190611965565b60405180910390f35b34801561022457600080fd5b5061022d610713565b60405161023b9291906118cc565b60405180910390f35b34801561025057600080fd5b5061026b60048036038101906102669190611604565b610946565b005b34801561027957600080fd5b50610282610992565b60405161028f9190611980565b60405180910390f35b3480156102a457600080fd5b506102ad610998565b6040516102ba9190611980565b60405180910390f35b3480156102cf57600080fd5b506102d861099e565b6040516102e5919061188f565b60405180910390f35b3480156102fa57600080fd5b506103036109c4565b005b34801561031157600080fd5b5061032c60048036038101906103279190611669565b610a74565b60405161033b9392919061199b565b60405180910390f35b34801561035057600080fd5b50610359610abe565b60405161036691906118aa565b60405180910390f35b34801561037b57600080fd5b50610384610d91565b6040516103919190611903565b60405180910390f35b3480156103a657600080fd5b506103af610e1f565b005b3480156103bd57600080fd5b506103c6610e33565b6040516103d39190611903565b60405180910390f35b3480156103e857600080fd5b506103f1610ec1565b6040516103fe9190611903565b60405180910390f35b34801561041357600080fd5b5061041c610f4f565b6040516104299190611903565b60405180910390f35b34801561043e57600080fd5b50610447610fdd565b6040516104549190611874565b60405180910390f35b34801561046957600080fd5b50610472611006565b60405161047f9190611980565b60405180910390f35b34801561049457600080fd5b506104af60048036038101906104aa9190611669565b61100c565b6040516104be9392919061199b565b60405180910390f35b3480156104d357600080fd5b506104ee60048036038101906104e9919061162d565b611066565b6040516104fc9291906119d2565b60405180910390f35b34801561051157600080fd5b5061051a6110a7565b6040516105279190611980565b60405180910390f35b6105386110ad565b005b34801561054657600080fd5b50610561600480360381019061055c91906115db565b611309565b005b34801561056f57600080fd5b5061057861138d565b6040516105859190611903565b60405180910390f35b6000818361059c9190611a50565b905092915050565b6000600460003373ffffffffffffffffffffffffffffffffffffffff1673ffffffffffffffffffffffffffffffffffffffff16815260200190815260200160002080549050905090565b600580546105fb90611b27565b80601f016020809104026020016040519081016040528092919081815260200182805461062790611b27565b80156106745780601f1061064957610100808354040283529160200191610674565b820191906000526020600020905b81548152906001019060200180831161065757829003601f168201915b505050505081565b610684611565565b60016000838152602001908152602001600020604051806060016040529081600082015481526020016001820160009054906101000a900473ffffffffffffffffffffffffffffffffffffffff1673ffffffffffffffffffffffffffffffffffffffff1673ffffffffffffffffffffffffffffffffffffffff1681526020016002820154815250509050919050565b60608060006107206105a4565b90508067ffffffffffffffff811115610762577f4e487b7100000000000000000000000000000000000000000000000000000000600052604160045260246000fd5b6040519080825280602002602001820160405280156107905781602001602082028036833780820191505090505b5092508067ffffffffffffffff8111156107d3577f4e487b7100000000000000000000000000000000000000000000000000000000600052604160045260246000fd5b6040519080825280602002602001820160405280156108015781602001602082028036833780820191505090505b50915060005b81811015610940576000600460003373ffffffffffffffffffffffffffffffffffffffff1673ffffffffffffffffffffffffffffffffffffffff1681526020019081526020016000208281548110610888577f4e487b7100000000000000000000000000000000000000000000000000000000600052603260045260246000fd5b9060005260206000209060020201905080600001548583815181106108d6577f4e487b7100000000000000000000000000000000000000000000000000000000600052603260045260246000fd5b6020026020010181815250508060010154848381518110610920577f4e487b7100000000000000000000000000000000000000000000000000000000600052603260045260246000fd5b60200260200101818152505050808061093890611b59565b915050610807565b50509091565b61094e61141b565b80600860006101000a81548173ffffffffffffffffffffffffffffffffffffffff021916908373ffffffffffffffffffffffffffffffffffffffff16021790555050565b600e5481565b60095481565b600860009054906101000a900473ffffffffffffffffffffffffffffffffffffffff1681565b6109cc61141b565b6000479050600860009054906101000a900473ffffffffffffffffffffffffffffffffffffffff1673ffffffffffffffffffffffffffffffffffffffff166108fc829081150290604051600060405180830381858888f19350505050158015610a39573d6000803e3d6000fd5b507f5b6b431d4476a211bb7d41c20d1aab9ae2321deee0d20be3d9fc9b1093fa6e3d81604051610a699190611980565b60405180910390a150565b60016020528060005260406000206000915090508060000154908060010160009054906101000a900473ffffffffffffffffffffffffffffffffffffffff16908060020154905083565b6060600060025467ffffffffffffffff811115610b04577f4e487b7100000000000000000000000000000000000000000000000000000000600052604160045260246000fd5b604051908082528060200260200182016040528015610b325781602001602082028036833780820191505090505b509050600060025467ffffffffffffffff811115610b79577f4e487b7100000000000000000000000000000000000000000000000000000000600052604160045260246000fd5b604051908082528060200260200182016040528015610ba75781602001602082028036833780820191505090505b509050600060025467ffffffffffffffff811115610bee577f4e487b7100000000000000000000000000000000000000000000000000000000600052604160045260246000fd5b604051908082528060200260200182016040528015610c1c5781602001602082028036833780820191505090505b5090506000600190505b600254811015610d875760006001600083815260200190815260200160002090508060000154858381518110610c85577f4e487b7100000000000000000000000000000000000000000000000000000000600052603260045260246000fd5b6020026020010181815250508060010160009054906101000a900473ffffffffffffffffffffffffffffffffffffffff16848381518110610cef577f4e487b7100000000000000000000000000000000000000000000000000000000600052603260045260246000fd5b602002602001019073ffffffffffffffffffffffffffffffffffffffff16908173ffffffffffffffffffffffffffffffffffffffff16815250508060020154838381518110610d67577f4e487b7100000000000000000000000000000000000000000000000000000000600052603260045260246000fd5b602002602001018181525050508080610d7f90611b59565b915050610c26565b5082935050505090565b600c8054610d9e90611b27565b80601f0160208091040260200160405190810160405280929190818152602001828054610dca90611b27565b8015610e175780601f10610dec57610100808354040283529160200191610e17565b820191906000526020600020905b815481529060010190602001808311610dfa57829003601f168201915b505050505081565b610e2761141b565b610e316000611499565b565b60078054610e4090611b27565b80601f0160208091040260200160405190810160405280929190818152602001828054610e6c90611b27565b8015610eb95780601f10610e8e57610100808354040283529160200191610eb9565b820191906000526020600020905b815481529060010190602001808311610e9c57829003601f168201915b505050505081565b600a8054610ece90611b27565b80601f0160208091040260200160405190810160405280929190818152602001828054610efa90611b27565b8015610f475780601f10610f1c57610100808354040283529160200191610f47565b820191906000526020600020905b815481529060010190602001808311610f2a57829003601f168201915b505050505081565b600b8054610f5c90611b27565b80601f0160208091040260200160405190810160405280929190818152602001828054610f8890611b27565b8015610fd55780601f10610faa57610100808354040283529160200191610fd5565b820191906000526020600020905b815481529060010190602001808311610fb857829003601f168201915b505050505081565b60008060009054906101000a900473ffffffffffffffffffffffffffffffffffffffff16905090565b60025481565b6003818154811061101c57600080fd5b90600052602060002090600302016000915090508060000154908060010160009054906101000a900473ffffffffffffffffffffffffffffffffffffffff16908060020154905083565b6004602052816000526040600020818154811061108257600080fd5b9060005260206000209060020201600091509150508060000154908060010154905082565b600d5481565b60006001600060025481526020019081526020016000209050348160000181905550338160010160006101000a81548173ffffffffffffffffffffffffffffffffffffffff021916908373ffffffffffffffffffffffffffffffffffffffff160217905550428160020181905550600360405180606001604052803481526020013373ffffffffffffffffffffffffffffffffffffffff1681526020014281525090806001815401808255809150506001900390600052602060002090600302016000909190919091506000820151816000015560208201518160010160006101000a81548173ffffffffffffffffffffffffffffffffffffffff021916908373ffffffffffffffffffffffffffffffffffffffff16021790555060408201518160020155505060006040518060400160405280348152602001428152509050600460003373ffffffffffffffffffffffffffffffffffffffff1673ffffffffffffffffffffffffffffffffffffffff1681526020019081526020016000208190806001815401808255809150506001900390600052602060002090600202016000909190919091506000820151816000015560208201518160010155505061128134600d5461058e90919063ffffffff16565b600d81905550600e600081548092919061129a90611b59565b9190505550600260008154809291906112b290611b59565b91905055503373ffffffffffffffffffffffffffffffffffffffff167f264f630d9efa0d07053a31163641d9fcc0adafc9d9e76f1c37c2ce3a558d2c52346040516112fd9190611980565b60405180910390a25050565b61131161141b565b600073ffffffffffffffffffffffffffffffffffffffff168173ffffffffffffffffffffffffffffffffffffffff161415611381576040517f08c379a000000000000000000000000000000000000000000000000000000000815260040161137890611925565b60405180910390fd5b61138a81611499565b50565b6006805461139a90611b27565b80601f01602080910402602001604051908101604052809291908181526020018280546113c690611b27565b80156114135780601f106113e857610100808354040283529160200191611413565b820191906000526020600020905b8154815290600101906020018083116113f657829003601f168201915b505050505081565b61142361155d565b73ffffffffffffffffffffffffffffffffffffffff16611441610fdd565b73ffffffffffffffffffffffffffffffffffffffff1614611497576040517f08c379a000000000000000000000000000000000000000000000000000000000815260040161148e90611945565b60405180910390fd5b565b60008060009054906101000a900473ffffffffffffffffffffffffffffffffffffffff169050816000806101000a81548173ffffffffffffffffffffffffffffffffffffffff021916908373ffffffffffffffffffffffffffffffffffffffff1602179055508173ffffffffffffffffffffffffffffffffffffffff168173ffffffffffffffffffffffffffffffffffffffff167f8be0079c531659141344cd1fd0a4f28419497f9722a3daafe3b4186f6b6457e060405160405180910390a35050565b600033905090565b604051806060016040528060008152602001600073ffffffffffffffffffffffffffffffffffffffff168152602001600081525090565b6000813590506115ab81611c11565b92915050565b6000813590506115c081611c28565b92915050565b6000813590506115d581611c3f565b92915050565b6000602082840312156115ed57600080fd5b60006115fb8482850161159c565b91505092915050565b60006020828403121561161657600080fd5b6000611624848285016115b1565b91505092915050565b6000806040838503121561164057600080fd5b600061164e8582860161159c565b925050602061165f858286016115c6565b9150509250929050565b60006020828403121561167b57600080fd5b6000611689848285016115c6565b91505092915050565b600061169e8383611856565b60208301905092915050565b6116b381611ab8565b82525050565b6116c281611aa6565b82525050565b6116d181611aa6565b82525050565b60006116e282611a0b565b6116ec8185611a2e565b93506116f7836119fb565b8060005b8381101561172857815161170f8882611692565b975061171a83611a21565b9250506001810190506116fb565b5085935050505092915050565b600061174082611a16565b61174a8185611a3f565b935061175a818560208601611af4565b61176381611c00565b840191505092915050565b600061177b602683611a3f565b91507f4f776e61626c653a206e6577206f776e657220697320746865207a65726f206160008301527f64647265737300000000000000000000000000000000000000000000000000006020830152604082019050919050565b60006117e1602083611a3f565b91507f4f776e61626c653a2063616c6c6572206973206e6f7420746865206f776e65726000830152602082019050919050565b60608201600082015161182a6000850182611856565b50602082015161183d60208501826116b9565b5060408201516118506040850182611856565b50505050565b61185f81611aea565b82525050565b61186e81611aea565b82525050565b600060208201905061188960008301846116c8565b92915050565b60006020820190506118a460008301846116aa565b92915050565b600060208201905081810360008301526118c481846116d7565b905092915050565b600060408201905081810360008301526118e681856116d7565b905081810360208301526118fa81846116d7565b90509392505050565b6000602082019050818103600083015261191d8184611735565b905092915050565b6000602082019050818103600083015261193e8161176e565b9050919050565b6000602082019050818103600083015261195e816117d4565b9050919050565b600060608201905061197a6000830184611814565b92915050565b60006020820190506119956000830184611865565b92915050565b60006060820190506119b06000830186611865565b6119bd60208301856116c8565b6119ca6040830184611865565b949350505050565b60006040820190506119e76000830185611865565b6119f46020830184611865565b9392505050565b6000819050602082019050919050565b600081519050919050565b600081519050919050565b6000602082019050919050565b600082825260208201905092915050565b600082825260208201905092915050565b6000611a5b82611aea565b9150611a6683611aea565b9250827fffffffffffffffffffffffffffffffffffffffffffffffffffffffffffffffff03821115611a9b57611a9a611ba2565b5b828201905092915050565b6000611ab182611aca565b9050919050565b6000611ac382611aca565b9050919050565b600073ffffffffffffffffffffffffffffffffffffffff82169050919050565b6000819050919050565b60005b83811015611b12578082015181840152602081019050611af7565b83811115611b21576000848401525b50505050565b60006002820490506001821680611b3f57607f821691505b60208210811415611b5357611b52611bd1565b5b50919050565b6000611b6482611aea565b91507fffffffffffffffffffffffffffffffffffffffffffffffffffffffffffffffff821415611b9757611b96611ba2565b5b600182019050919050565b7f4e487b7100000000000000000000000000000000000000000000000000000000600052601160045260246000fd5b7f4e487b7100000000000000000000000000000000000000000000000000000000600052602260045260246000fd5b6000601f19601f8301169050919050565b611c1a81611aa6565b8114611c2557600080fd5b50565b611c3181611ab8565b8114611c3c57600080fd5b50565b611c4881611aea565b8114611c5357600080fd5b5056fea2646970667358221220a3d1e0a33b29456b6369e0ce26c69ddd5937b5d3b5e6e923c8c699572799fa7764736f6c63430008000033",
  "immutableReferences": {},
  "source": "// SPDX-License-Identifier: MIT\r\npragma solidity ^0.8.0;\r\n \r\n\r\nimport '@openzeppelin/contracts/access/Ownable.sol';\r\nimport '@openzeppelin/contracts/utils/math/SafeMath.sol';\r\n\r\ncontract Fundraiser is Ownable {\r\n  using SafeMath for uint256;\r\n\r\n  struct Donation {\r\n    uint256 value;\r\n    uint256 date;\r\n    \r\n  }\r\n  struct Data{\r\n      uint Amount;\r\n      address Address;\r\n      uint Date;\r\n  }\r\n   \r\n  mapping(uint=>Data) public dataById;\r\n  uint public id=1;\r\n  \r\n  Data[] public datas;\r\n \r\n\r\n \r\n\r\n  mapping(address => Donation[]) public _donations;\r\n\r\n  event DonationReceived(address indexed donor, uint256 value);\r\n  event Withdraw(uint256 amount);\r\n\r\n  string public name;\r\n  string public image;\r\n  string public description;\r\n  address payable public beneficiary;\r\n  uint256 public goalAmount;\r\n  string public facebookLink;\r\n  string public linkedinLink;\r\n  string public twitterLink;\r\n  uint256 public totalDonations;\r\n  uint256 public donationsCount;\r\n\r\n  constructor(\r\n    string memory _name,\r\n    string memory _image,\r\n    string memory _description,\r\n    uint256 _goalAmount,\r\n    string memory _facebookLink,\r\n    string memory _linkedinLink,\r\n    string memory _twitterLink,\r\n    address payable _beneficiary,\r\n    address _custodian\r\n  ) public {\r\n    name = _name;\r\n    image = _image;\r\n    description = _description;\r\n    goalAmount = _goalAmount;\r\n    facebookLink =_facebookLink;\r\n    linkedinLink =_linkedinLink;\r\n    twitterLink = _twitterLink;\r\n    beneficiary = _beneficiary;\r\n    _transferOwnership(_custodian);\r\n  }\r\n\r\n  function setBeneficiary(address payable _beneficiary) public onlyOwner {\r\n    beneficiary = _beneficiary;\r\n  }\r\n\r\n  function myDonationsCount() public view returns (uint256) {\r\n    return _donations[msg.sender].length;\r\n  }\r\n  \r\n  //----------------------------------------------------------------------------------------------------------------\r\n \r\n\r\nfunction getAllDonation() public view returns (uint[] memory \r\n   ){\r\n      uint[] memory Amount = new uint[](id);\r\n      address[] memory Address = new address[](id);\r\n      uint[] memory Date = new uint[](id);\r\n      for (uint i = 1; i < id; i++) {\r\n          Data storage _data = dataById[i];\r\n          Amount[i] = _data.Amount;\r\n          Address[i] = _data.Address;\r\n          Date[i] = _data.Date;\r\n      }\r\n      return (Amount );\r\n  }\r\n\r\n\r\n\r\n\r\n  function dataByIndex(uint _id) public view returns(Data memory){\r\n      return dataById[_id];\r\n  }\r\n\r\n \r\n   \r\n  //---------------------------------------------------------------------------------------------------------------\r\n\r\n  function donate() public payable {\r\n    Data storage NewData = dataById[id];\r\n    NewData.Amount=msg.value;\r\n    NewData.Address=msg.sender;\r\n    NewData.Date=block.timestamp;\r\n\r\n    datas.push(Data({Amount:msg.value, Address:msg.sender, Date:block.timestamp}));\r\n    Donation memory donation = Donation({\r\n      value: msg.value,\r\n      date: block.timestamp\r\n    });\r\n    _donations[msg.sender].push(donation);\r\n    totalDonations = totalDonations.add(msg.value);\r\n    donationsCount++;\r\n    id++;\r\n\r\n    emit DonationReceived(msg.sender, msg.value);\r\n  }\r\n\r\n  function myDonations() public view returns (\r\n      uint256[] memory values,\r\n      uint256[] memory dates\r\n  )\r\n\r\n  {\r\n    uint256 count = myDonationsCount();\r\n    values = new uint256[](count);\r\n    dates = new uint256[](count);\r\n    for (uint256 i = 0; i < count; i++) {\r\n        Donation storage donation = _donations[msg.sender][i];\r\n        values[i] = donation.value;\r\n        dates[i] = donation.date;\r\n    }\r\n    return (values, dates);\r\n  }\r\n\r\n  function withdraw() public onlyOwner {\r\n      uint256 balance = address(this).balance;\r\n      beneficiary.transfer(balance);\r\n      emit Withdraw(balance);\r\n  }\r\n\r\n  fallback() external payable {\r\n      totalDonations = totalDonations.add(msg.value);\r\n      donationsCount++;\r\n  }\r\n\r\n}",
  "sourcePath": "D:\\Crypto-Charity\\contracts\\Fundraiser.sol",
  "compiler": {
    "name": "solc",
    "version": "0.8.0+commit.c7dfd78e.Emscripten.clang"
  },
  "schemaVersion": "3.4.11",
  "updatedAt": "2022-12-19T08:24:00.950Z",
  "devdoc": {
    "kind": "dev",
    "methods": {
      "owner()": {
        "details": "Returns the address of the current owner."
      },
      "renounceOwnership()": {
        "details": "Leaves the contract without owner. It will not be possible to call `onlyOwner` functions anymore. Can only be called by the current owner. NOTE: Renouncing ownership will leave the contract without an owner, thereby removing any functionality that is only available to the owner."
      },
      "transferOwnership(address)": {
        "details": "Transfers ownership of the contract to a new account (`newOwner`). Can only be called by the current owner."
      }
    },
    "version": 1
  },
  "userdoc": {
    "kind": "user",
    "methods": {},
    "version": 1
  }
}