{
  "contractName": "FundraiserFactory",
  "abi": [
    {
      "anonymous": false,
      "inputs": [
        {
          "indexed": true,
          "internalType": "contract Fundraiser",
          "name": "fundraiser",
          "type": "address"
        },
        {
          "indexed": true,
          "internalType": "address",
          "name": "owner",
          "type": "address"
        }
      ],
      "name": "FundraiserCreated",
      "type": "event"
    },
    {
      "inputs": [
        {
          "internalType": "uint256",
          "name": "",
          "type": "uint256"
        }
      ],
      "name": "_fundraisers",
      "outputs": [
        {
          "internalType": "contract Fundraiser",
          "name": "",
          "type": "address"
        }
      ],
      "stateMutability": "view",
      "type": "function",
      "constant": true
    },
    {
      "inputs": [
        {
          "internalType": "string",
          "name": "name",
          "type": "string"
        },
        {
          "internalType": "string",
          "name": "image",
          "type": "string"
        },
        {
          "internalType": "string",
          "name": "description",
          "type": "string"
        },
        {
          "internalType": "string",
          "name": "facebookLink",
          "type": "string"
        },
        {
          "internalType": "string",
          "name": "linkedinLink",
          "type": "string"
        },
        {
          "internalType": "string",
          "name": "twitterLink",
          "type": "string"
        },
        {
          "internalType": "uint256",
          "name": "goalAmount",
          "type": "uint256"
        },
        {
          "internalType": "address payable",
          "name": "beneficiary",
          "type": "address"
        }
      ],
      "name": "createFundraiser",
      "outputs": [],
      "stateMutability": "nonpayable",
      "type": "function"
    },
    {
      "inputs": [],
      "name": "fundraisersCount",
      "outputs": [
        {
          "internalType": "uint256",
          "name": "",
          "type": "uint256"
        }
      ],
      "stateMutability": "view",
      "type": "function",
      "constant": true
    },
    {
      "inputs": [
        {
          "internalType": "uint256",
          "name": "limit",
          "type": "uint256"
        },
        {
          "internalType": "uint256",
          "name": "offset",
          "type": "uint256"
        }
      ],
      "name": "fundraisers",
      "outputs": [
        {
          "internalType": "contract Fundraiser[]",
          "name": "coll",
          "type": "address[]"
        }
      ],
      "stateMutability": "view",
      "type": "function",
      "constant": true
    }
  ],
  "bytecode": "0x608060405234801561001057600080fd5b50612874806100206000396000f3fe60806040523480156200001157600080fd5b5060043610620000525760003560e01c806301cb1b631462000057578063704914f814620000775780639d3b435514620000ad578063a13af7bd14620000cf575b600080fd5b6200007560048036038101906200006f91906200052c565b62000105565b005b6200009560048036038101906200008f9190620006b1565b6200021a565b604051620000a491906200084e565b60405180910390f35b620000b762000432565b604051620000c691906200097a565b60405180910390f35b620000ed6004803603810190620000e7919062000685565b6200043e565b604051620000fc919062000872565b60405180910390f35b60008888888589898988336040516200011e906200047e565b62000132999897969594939291906200088f565b604051809103906000f0801580156200014f573d6000803e3d6000fd5b5090506000819080600181540180825580915050600190039060005260206000200160009091909190916101000a81548173ffffffffffffffffffffffffffffffffffffffff021916908373ffffffffffffffffffffffffffffffffffffffff1602179055503373ffffffffffffffffffffffffffffffffffffffff168173ffffffffffffffffffffffffffffffffffffffff167fa2398daac0c8053a1e3c0280916c2ec6bc884f0959c27e639a4db829b7eabfb160405160405180910390a3505050505050505050565b60606200022662000432565b8211156200026b576040517f08c379a0000000000000000000000000000000000000000000000000000000008152600401620002629062000958565b60405180910390fd5b6000826200027862000432565b62000284919062000ab0565b905083811062000295578362000297565b805b905060648110620002aa576064620002ac565b805b90508067ffffffffffffffff811115620002ef577f4e487b7100000000000000000000000000000000000000000000000000000000600052604160045260246000fd5b6040519080825280602002602001820160405280156200031e5781602001602082028036833780820191505090505b50915060005b818110156200042a57600081856200033d919062000a53565b8154811062000375577f4e487b7100000000000000000000000000000000000000000000000000000000600052603260045260246000fd5b9060005260206000200160009054906101000a900473ffffffffffffffffffffffffffffffffffffffff16838281518110620003da577f4e487b7100000000000000000000000000000000000000000000000000000000600052603260045260246000fd5b602002602001019073ffffffffffffffffffffffffffffffffffffffff16908173ffffffffffffffffffffffffffffffffffffffff16815250508080620004219062000baa565b91505062000324565b505092915050565b60008080549050905090565b600081815481106200044f57600080fd5b906000526020600020016000915054906101000a900473ffffffffffffffffffffffffffffffffffffffff1681565b611ba38062000c9c83390190565b6000620004a36200049d84620009cb565b62000997565b905082815260208101848484011115620004bc57600080fd5b620004c984828562000b65565b509392505050565b600081359050620004e28162000c67565b92915050565b600082601f830112620004fa57600080fd5b81356200050c8482602086016200048c565b91505092915050565b600081359050620005268162000c81565b92915050565b600080600080600080600080610100898b0312156200054a57600080fd5b600089013567ffffffffffffffff8111156200056557600080fd5b620005738b828c01620004e8565b985050602089013567ffffffffffffffff8111156200059157600080fd5b6200059f8b828c01620004e8565b975050604089013567ffffffffffffffff811115620005bd57600080fd5b620005cb8b828c01620004e8565b965050606089013567ffffffffffffffff811115620005e957600080fd5b620005f78b828c01620004e8565b955050608089013567ffffffffffffffff8111156200061557600080fd5b620006238b828c01620004e8565b94505060a089013567ffffffffffffffff8111156200064157600080fd5b6200064f8b828c01620004e8565b93505060c0620006628b828c0162000515565b92505060e0620006758b828c01620004d1565b9150509295985092959890939650565b6000602082840312156200069857600080fd5b6000620006a88482850162000515565b91505092915050565b60008060408385031215620006c557600080fd5b6000620006d58582860162000515565b9250506020620006e88582860162000515565b9150509250929050565b600062000700838362000798565b60208301905092915050565b620007178162000aff565b82525050565b620007288162000aeb565b82525050565b60006200073b8262000a0e565b62000747818562000a31565b93506200075483620009fe565b8060005b838110156200078b5781516200076f8882620006f2565b97506200077c8362000a24565b92505060018101905062000758565b5085935050505092915050565b620007a38162000b3d565b82525050565b620007b48162000b3d565b82525050565b6000620007c78262000a19565b620007d3818562000a42565b9350620007e581856020860162000b74565b620007f08162000c56565b840191505092915050565b60006200080a60148362000a42565b91507f6f6666736574206f7574206f6620626f756e64730000000000000000000000006000830152602082019050919050565b620008488162000b33565b82525050565b600060208201905081810360008301526200086a81846200072e565b905092915050565b6000602082019050620008896000830184620007a9565b92915050565b6000610120820190508181036000830152620008ac818c620007ba565b90508181036020830152620008c2818b620007ba565b90508181036040830152620008d8818a620007ba565b9050620008e960608301896200083d565b8181036080830152620008fd8188620007ba565b905081810360a0830152620009138187620007ba565b905081810360c0830152620009298186620007ba565b90506200093a60e08301856200070c565b6200094a6101008301846200071d565b9a9950505050505050505050565b600060208201905081810360008301526200097381620007fb565b9050919050565b60006020820190506200099160008301846200083d565b92915050565b6000604051905081810181811067ffffffffffffffff82111715620009c157620009c062000c27565b5b8060405250919050565b600067ffffffffffffffff821115620009e957620009e862000c27565b5b601f19601f8301169050602081019050919050565b6000819050602082019050919050565b600081519050919050565b600081519050919050565b6000602082019050919050565b600082825260208201905092915050565b600082825260208201905092915050565b600062000a608262000b33565b915062000a6d8362000b33565b9250827fffffffffffffffffffffffffffffffffffffffffffffffffffffffffffffffff0382111562000aa55762000aa462000bf8565b5b828201905092915050565b600062000abd8262000b33565b915062000aca8362000b33565b92508282101562000ae05762000adf62000bf8565b5b828203905092915050565b600062000af88262000b13565b9050919050565b600062000b0c8262000b13565b9050919050565b600073ffffffffffffffffffffffffffffffffffffffff82169050919050565b6000819050919050565b600062000b4a8262000b51565b9050919050565b600062000b5e8262000b13565b9050919050565b82818337600083830152505050565b60005b8381101562000b9457808201518184015260208101905062000b77565b8381111562000ba4576000848401525b50505050565b600062000bb78262000b33565b91507fffffffffffffffffffffffffffffffffffffffffffffffffffffffffffffffff82141562000bed5762000bec62000bf8565b5b600182019050919050565b7f4e487b7100000000000000000000000000000000000000000000000000000000600052601160045260246000fd5b7f4e487b7100000000000000000000000000000000000000000000000000000000600052604160045260246000fd5b6000601f19601f8301169050919050565b62000c728162000aff565b811462000c7e57600080fd5b50565b62000c8c8162000b33565b811462000c9857600080fd5b5056fe60806040523480156200001157600080fd5b5060405162001ba338038062001ba3833981810160405281019062000037919062000388565b620000576200004b6200015560201b60201c565b6200015d60201b60201c565b88600290805190602001906200006f92919062000221565b5087600390805190602001906200008892919062000221565b508660049080519060200190620000a192919062000221565b50856006819055508460079080519060200190620000c192919062000221565b508360089080519060200190620000da92919062000221565b508260099080519060200190620000f392919062000221565b5081600560006101000a81548173ffffffffffffffffffffffffffffffffffffffff021916908373ffffffffffffffffffffffffffffffffffffffff16021790555062000146816200015d60201b60201c565b505050505050505050620006c8565b600033905090565b60008060009054906101000a900473ffffffffffffffffffffffffffffffffffffffff169050816000806101000a81548173ffffffffffffffffffffffffffffffffffffffff021916908373ffffffffffffffffffffffffffffffffffffffff1602179055508173ffffffffffffffffffffffffffffffffffffffff168173ffffffffffffffffffffffffffffffffffffffff167f8be0079c531659141344cd1fd0a4f28419497f9722a3daafe3b4186f6b6457e060405160405180910390a35050565b8280546200022f90620005e6565b90600052602060002090601f0160209004810192826200025357600085556200029f565b82601f106200026e57805160ff19168380011785556200029f565b828001600101855582156200029f579182015b828111156200029e57825182559160200191906001019062000281565b5b509050620002ae9190620002b2565b5090565b5b80821115620002cd576000816000905550600101620002b3565b5090565b6000620002e8620002e2846200052b565b620004f7565b9050828152602081018484840111156200030157600080fd5b6200030e848285620005b0565b509392505050565b60008151905062000327816200067a565b92915050565b6000815190506200033e8162000694565b92915050565b600082601f8301126200035657600080fd5b815162000368848260208601620002d1565b91505092915050565b6000815190506200038281620006ae565b92915050565b60008060008060008060008060006101208a8c031215620003a857600080fd5b60008a015167ffffffffffffffff811115620003c357600080fd5b620003d18c828d0162000344565b99505060208a015167ffffffffffffffff811115620003ef57600080fd5b620003fd8c828d0162000344565b98505060408a015167ffffffffffffffff8111156200041b57600080fd5b620004298c828d0162000344565b97505060606200043c8c828d0162000371565b96505060808a015167ffffffffffffffff8111156200045a57600080fd5b620004688c828d0162000344565b95505060a08a015167ffffffffffffffff8111156200048657600080fd5b620004948c828d0162000344565b94505060c08a015167ffffffffffffffff811115620004b257600080fd5b620004c08c828d0162000344565b93505060e0620004d38c828d016200032d565b925050610100620004e78c828d0162000316565b9150509295985092959850929598565b6000604051905081810181811067ffffffffffffffff821117156200052157620005206200064b565b5b8060405250919050565b600067ffffffffffffffff8211156200054957620005486200064b565b5b601f19601f8301169050602081019050919050565b60006200056b8262000586565b9050919050565b60006200057f8262000586565b9050919050565b600073ffffffffffffffffffffffffffffffffffffffff82169050919050565b6000819050919050565b60005b83811015620005d0578082015181840152602081019050620005b3565b83811115620005e0576000848401525b50505050565b60006002820490506001821680620005ff57607f821691505b602082108114156200061657620006156200061c565b5b50919050565b7f4e487b7100000000000000000000000000000000000000000000000000000000600052602260045260246000fd5b7f4e487b7100000000000000000000000000000000000000000000000000000000600052604160045260246000fd5b62000685816200055e565b81146200069157600080fd5b50565b6200069f8162000572565b8114620006ab57600080fd5b50565b620006b981620005a6565b8114620006c557600080fd5b50565b6114cb80620006d86000396000f3fe6080604052600436106101185760003560e01c8063715018a6116100a0578063dc0661be11610064578063dc0661be1461037f578063de2ed893146103bd578063ed88c68e146103e8578063f2fde38b146103f2578063f3ccaac01461041b57610119565b8063715018a6146102bc5780637284e416146102d357806373da56a7146102fe578063848604aa146103295780638da5cb5b1461035457610119565b80631f522595116100e75780631f522595146101f95780632636b9451461022457806338af3eed1461024f5780633ccfd60b1461027a5780637141a03b1461029157610119565b80630180b97c1461014e57806306fdde03146101795780631a57f7b4146101a45780631c31f710146101d057610119565b5b61012e34600a5461044690919063ffffffff16565b600a81905550600b600081548092919061014790611398565b9190505550005b34801561015a57600080fd5b5061016361045c565b60405161017091906111f6565b60405180910390f35b34801561018557600080fd5b5061018e6104a6565b60405161019b9190611194565b60405180910390f35b3480156101b057600080fd5b506101b9610534565b6040516101c792919061115d565b60405180910390f35b3480156101dc57600080fd5b506101f760048036038101906101f29190610f31565b610767565b005b34801561020557600080fd5b5061020e6107b3565b60405161021b91906111f6565b60405180910390f35b34801561023057600080fd5b506102396107b9565b60405161024691906111f6565b60405180910390f35b34801561025b57600080fd5b506102646107bf565b6040516102719190611142565b60405180910390f35b34801561028657600080fd5b5061028f6107e5565b005b34801561029d57600080fd5b506102a6610895565b6040516102b39190611194565b60405180910390f35b3480156102c857600080fd5b506102d1610923565b005b3480156102df57600080fd5b506102e8610937565b6040516102f59190611194565b60405180910390f35b34801561030a57600080fd5b506103136109c5565b6040516103209190611194565b60405180910390f35b34801561033557600080fd5b5061033e610a53565b60405161034b9190611194565b60405180910390f35b34801561036057600080fd5b50610369610ae1565b6040516103769190611127565b60405180910390f35b34801561038b57600080fd5b506103a660048036038101906103a19190610f5a565b610b0a565b6040516103b4929190611211565b60405180910390f35b3480156103c957600080fd5b506103d2610b4b565b6040516103df91906111f6565b60405180910390f35b6103f0610b51565b005b3480156103fe57600080fd5b5061041960048036038101906104149190610f08565b610c6d565b005b34801561042757600080fd5b50610430610cf1565b60405161043d9190611194565b60405180910390f35b60008183610454919061128f565b905092915050565b6000600160003373ffffffffffffffffffffffffffffffffffffffff1673ffffffffffffffffffffffffffffffffffffffff16815260200190815260200160002080549050905090565b600280546104b390611366565b80601f01602080910402602001604051908101604052809291908181526020018280546104df90611366565b801561052c5780601f106105015761010080835404028352916020019161052c565b820191906000526020600020905b81548152906001019060200180831161050f57829003601f168201915b505050505081565b606080600061054161045c565b90508067ffffffffffffffff811115610583577f4e487b7100000000000000000000000000000000000000000000000000000000600052604160045260246000fd5b6040519080825280602002602001820160405280156105b15781602001602082028036833780820191505090505b5092508067ffffffffffffffff8111156105f4577f4e487b7100000000000000000000000000000000000000000000000000000000600052604160045260246000fd5b6040519080825280602002602001820160405280156106225781602001602082028036833780820191505090505b50915060005b81811015610761576000600160003373ffffffffffffffffffffffffffffffffffffffff1673ffffffffffffffffffffffffffffffffffffffff16815260200190815260200160002082815481106106a9577f4e487b7100000000000000000000000000000000000000000000000000000000600052603260045260246000fd5b9060005260206000209060020201905080600001548583815181106106f7577f4e487b7100000000000000000000000000000000000000000000000000000000600052603260045260246000fd5b6020026020010181815250508060010154848381518110610741577f4e487b7100000000000000000000000000000000000000000000000000000000600052603260045260246000fd5b60200260200101818152505050808061075990611398565b915050610628565b50509091565b61076f610d7f565b80600560006101000a81548173ffffffffffffffffffffffffffffffffffffffff021916908373ffffffffffffffffffffffffffffffffffffffff16021790555050565b600b5481565b60065481565b600560009054906101000a900473ffffffffffffffffffffffffffffffffffffffff1681565b6107ed610d7f565b6000479050600560009054906101000a900473ffffffffffffffffffffffffffffffffffffffff1673ffffffffffffffffffffffffffffffffffffffff166108fc829081150290604051600060405180830381858888f1935050505015801561085a573d6000803e3d6000fd5b507f5b6b431d4476a211bb7d41c20d1aab9ae2321deee0d20be3d9fc9b1093fa6e3d8160405161088a91906111f6565b60405180910390a150565b600980546108a290611366565b80601f01602080910402602001604051908101604052809291908181526020018280546108ce90611366565b801561091b5780601f106108f05761010080835404028352916020019161091b565b820191906000526020600020905b8154815290600101906020018083116108fe57829003601f168201915b505050505081565b61092b610d7f565b6109356000610dfd565b565b6004805461094490611366565b80601f016020809104026020016040519081016040528092919081815260200182805461097090611366565b80156109bd5780601f10610992576101008083540402835291602001916109bd565b820191906000526020600020905b8154815290600101906020018083116109a057829003601f168201915b505050505081565b600780546109d290611366565b80601f01602080910402602001604051908101604052809291908181526020018280546109fe90611366565b8015610a4b5780601f10610a2057610100808354040283529160200191610a4b565b820191906000526020600020905b815481529060010190602001808311610a2e57829003601f168201915b505050505081565b60088054610a6090611366565b80601f0160208091040260200160405190810160405280929190818152602001828054610a8c90611366565b8015610ad95780601f10610aae57610100808354040283529160200191610ad9565b820191906000526020600020905b815481529060010190602001808311610abc57829003601f168201915b505050505081565b60008060009054906101000a900473ffffffffffffffffffffffffffffffffffffffff16905090565b60016020528160005260406000208181548110610b2657600080fd5b9060005260206000209060020201600091509150508060000154908060010154905082565b600a5481565b60006040518060400160405280348152602001428152509050600160003373ffffffffffffffffffffffffffffffffffffffff1673ffffffffffffffffffffffffffffffffffffffff16815260200190815260200160002081908060018154018082558091505060019003906000526020600020906002020160009091909190915060008201518160000155602082015181600101555050610bfe34600a5461044690919063ffffffff16565b600a81905550600b6000815480929190610c1790611398565b91905055503373ffffffffffffffffffffffffffffffffffffffff167f264f630d9efa0d07053a31163641d9fcc0adafc9d9e76f1c37c2ce3a558d2c5234604051610c6291906111f6565b60405180910390a250565b610c75610d7f565b600073ffffffffffffffffffffffffffffffffffffffff168173ffffffffffffffffffffffffffffffffffffffff161415610ce5576040517f08c379a0000000000000000000000000000000000000000000000000000000008152600401610cdc906111b6565b60405180910390fd5b610cee81610dfd565b50565b60038054610cfe90611366565b80601f0160208091040260200160405190810160405280929190818152602001828054610d2a90611366565b8015610d775780601f10610d4c57610100808354040283529160200191610d77565b820191906000526020600020905b815481529060010190602001808311610d5a57829003601f168201915b505050505081565b610d87610ec1565b73ffffffffffffffffffffffffffffffffffffffff16610da5610ae1565b73ffffffffffffffffffffffffffffffffffffffff1614610dfb576040517f08c379a0000000000000000000000000000000000000000000000000000000008152600401610df2906111d6565b60405180910390fd5b565b60008060009054906101000a900473ffffffffffffffffffffffffffffffffffffffff169050816000806101000a81548173ffffffffffffffffffffffffffffffffffffffff021916908373ffffffffffffffffffffffffffffffffffffffff1602179055508173ffffffffffffffffffffffffffffffffffffffff168173ffffffffffffffffffffffffffffffffffffffff167f8be0079c531659141344cd1fd0a4f28419497f9722a3daafe3b4186f6b6457e060405160405180910390a35050565b600033905090565b600081359050610ed881611450565b92915050565b600081359050610eed81611467565b92915050565b600081359050610f028161147e565b92915050565b600060208284031215610f1a57600080fd5b6000610f2884828501610ec9565b91505092915050565b600060208284031215610f4357600080fd5b6000610f5184828501610ede565b91505092915050565b60008060408385031215610f6d57600080fd5b6000610f7b85828601610ec9565b9250506020610f8c85828601610ef3565b9150509250929050565b6000610fa28383611109565b60208301905092915050565b610fb7816112f7565b82525050565b610fc6816112e5565b82525050565b6000610fd78261124a565b610fe1818561126d565b9350610fec8361123a565b8060005b8381101561101d5781516110048882610f96565b975061100f83611260565b925050600181019050610ff0565b5085935050505092915050565b600061103582611255565b61103f818561127e565b935061104f818560208601611333565b6110588161143f565b840191505092915050565b600061107060268361127e565b91507f4f776e61626c653a206e6577206f776e657220697320746865207a65726f206160008301527f64647265737300000000000000000000000000000000000000000000000000006020830152604082019050919050565b60006110d660208361127e565b91507f4f776e61626c653a2063616c6c6572206973206e6f7420746865206f776e65726000830152602082019050919050565b61111281611329565b82525050565b61112181611329565b82525050565b600060208201905061113c6000830184610fbd565b92915050565b60006020820190506111576000830184610fae565b92915050565b600060408201905081810360008301526111778185610fcc565b9050818103602083015261118b8184610fcc565b90509392505050565b600060208201905081810360008301526111ae818461102a565b905092915050565b600060208201905081810360008301526111cf81611063565b9050919050565b600060208201905081810360008301526111ef816110c9565b9050919050565b600060208201905061120b6000830184611118565b92915050565b60006040820190506112266000830185611118565b6112336020830184611118565b9392505050565b6000819050602082019050919050565b600081519050919050565b600081519050919050565b6000602082019050919050565b600082825260208201905092915050565b600082825260208201905092915050565b600061129a82611329565b91506112a583611329565b9250827fffffffffffffffffffffffffffffffffffffffffffffffffffffffffffffffff038211156112da576112d96113e1565b5b828201905092915050565b60006112f082611309565b9050919050565b600061130282611309565b9050919050565b600073ffffffffffffffffffffffffffffffffffffffff82169050919050565b6000819050919050565b60005b83811015611351578082015181840152602081019050611336565b83811115611360576000848401525b50505050565b6000600282049050600182168061137e57607f821691505b6020821081141561139257611391611410565b5b50919050565b60006113a382611329565b91507fffffffffffffffffffffffffffffffffffffffffffffffffffffffffffffffff8214156113d6576113d56113e1565b5b600182019050919050565b7f4e487b7100000000000000000000000000000000000000000000000000000000600052601160045260246000fd5b7f4e487b7100000000000000000000000000000000000000000000000000000000600052602260045260246000fd5b6000601f19601f8301169050919050565b611459816112e5565b811461146457600080fd5b50565b611470816112f7565b811461147b57600080fd5b50565b61148781611329565b811461149257600080fd5b5056fea2646970667358221220c72669c747f1a1c9c1f1be200db852168a2eedf4c6c69ed66fb0729a2d10402e64736f6c63430008000033a2646970667358221220037c788d242c59e63083a569cecb496ae5d31f6c7aadbd415b0b94bf8dff0c5f64736f6c63430008000033",
  "immutableReferences": {},
  "source": "// SPDX-License-Identifier: MIT\r\npragma solidity ^0.8.0;\r\n\r\nimport './Fundraiser.sol';\r\n\r\ncontract FundraiserFactory {\r\n  uint256 constant maxLimit = 100;\r\n  Fundraiser[] public _fundraisers;\r\n\r\n  event FundraiserCreated(Fundraiser indexed fundraiser, address indexed owner);\r\n\r\n  function createFundraiser(\r\n    string memory name,\r\n    string memory image,\r\n    string memory description,\r\n    string memory facebookLink,\r\n    string memory linkedinLink,\r\n    string memory twitterLink,\r\n    uint256 goalAmount,\r\n    address payable beneficiary\r\n  ) public {\r\n    Fundraiser fundraiser = new Fundraiser(\r\n      name,\r\n      image,\r\n      description,\r\n      goalAmount,\r\n      facebookLink,\r\n      linkedinLink,\r\n      twitterLink,\r\n      beneficiary,\r\n      msg.sender\r\n    );\r\n    _fundraisers.push(fundraiser);\r\n    emit FundraiserCreated(fundraiser, msg.sender);\r\n  }\r\n\r\n\r\n  function fundraisersCount() public view returns (uint256) {\r\n    return _fundraisers.length;\r\n  }\r\n\r\n  function fundraisers(uint256 limit, uint256 offset)\r\n    public\r\n    view\r\n    returns (Fundraiser[] memory coll)\r\n  {\r\n    require(offset <= fundraisersCount(), 'offset out of bounds');\r\n\r\n    uint256 size = fundraisersCount() - offset;\r\n    size = size < limit ? size : limit;\r\n    size = size < maxLimit ? size : maxLimit;\r\n    coll = new Fundraiser[](size);\r\n\r\n    for (uint256 i = 0; i < size; i++) {\r\n      coll[i] = _fundraisers[offset + i];\r\n    }\r\n\r\n    return coll;\r\n  }\r\n}\r\n",
  "sourcePath": "D:\\Crypto-Charity\\contracts\\FundraiserFactory.sol",
  "compiler": {
    "name": "solc",
    "version": "0.8.0+commit.c7dfd78e.Emscripten.clang"
  },
  "schemaVersion": "3.4.11",
  "updatedAt": "2022-12-16T11:12:36.575Z",
  "networkType": "ethereum",
  "devdoc": {
    "kind": "dev",
    "methods": {},
    "version": 1
  },
  "userdoc": {
    "kind": "user",
    "methods": {},
    "version": 1
  }
}